{
  "contractName": "Lottery",
  "abi": [
    {
      "inputs": [],
      "stateMutability": "nonpayable",
      "type": "constructor"
    },
    {
      "inputs": [],
      "name": "manager",
      "outputs": [
        {
          "internalType": "address",
          "name": "",
          "type": "address"
        }
      ],
      "stateMutability": "view",
      "type": "function",
      "constant": true
    },
    {
      "inputs": [
        {
          "internalType": "uint256",
          "name": "",
          "type": "uint256"
        }
      ],
      "name": "players",
      "outputs": [
        {
          "internalType": "address payable",
          "name": "",
          "type": "address"
        }
      ],
      "stateMutability": "view",
      "type": "function",
      "constant": true
    },
    {
      "stateMutability": "payable",
      "type": "receive",
      "payable": true
    },
    {
      "inputs": [],
      "name": "getBalance",
      "outputs": [
        {
          "internalType": "uint256",
          "name": "",
          "type": "uint256"
        }
      ],
      "stateMutability": "view",
      "type": "function",
      "constant": true
    },
    {
      "inputs": [],
      "name": "random",
      "outputs": [
        {
          "internalType": "uint256",
          "name": "",
          "type": "uint256"
        }
      ],
      "stateMutability": "view",
      "type": "function",
      "constant": true
    },
    {
      "inputs": [],
      "name": "pickWinner",
      "outputs": [],
      "stateMutability": "nonpayable",
      "type": "function"
    }
  ],
  "bytecode": "0x608060405234801561001057600080fd5b5033600160006101000a81548173ffffffffffffffffffffffffffffffffffffffff021916908373ffffffffffffffffffffffffffffffffffffffff16021790555061074c806100616000396000f3fe60806040526004361061004e5760003560e01c806312065fe0146100d0578063481c6a75146100fb5780635d495aea146101265780635ec01e4d1461013d578063f71d96cb14610168576100cb565b366100cb5767016345785d8a0000341461006757600080fd5b6000339080600181540180825580915050600190039060005260206000200160009091909190916101000a81548173ffffffffffffffffffffffffffffffffffffffff021916908373ffffffffffffffffffffffffffffffffffffffff1602179055005b600080fd5b3480156100dc57600080fd5b506100e56101a5565b6040516100f291906104e9565b60405180910390f35b34801561010757600080fd5b50610110610207565b60405161011d9190610545565b60405180910390f35b34801561013257600080fd5b5061013b61022d565b005b34801561014957600080fd5b506101526103b0565b60405161015f91906104e9565b60405180910390f35b34801561017457600080fd5b5061018f600480360381019061018a9190610591565b6103ea565b60405161019c91906105df565b60405180910390f35b6000600160009054906101000a900473ffffffffffffffffffffffffffffffffffffffff1673ffffffffffffffffffffffffffffffffffffffff163373ffffffffffffffffffffffffffffffffffffffff161461020157600080fd5b47905090565b600160009054906101000a900473ffffffffffffffffffffffffffffffffffffffff1681565b600160009054906101000a900473ffffffffffffffffffffffffffffffffffffffff1673ffffffffffffffffffffffffffffffffffffffff163373ffffffffffffffffffffffffffffffffffffffff161461028757600080fd5b6003600080549050101561029a57600080fd5b60006102a46103b0565b9050600080600080549050836102ba9190610629565b9050600081815481106102d0576102cf61065a565b5b9060005260206000200160009054906101000a900473ffffffffffffffffffffffffffffffffffffffff1691508173ffffffffffffffffffffffffffffffffffffffff166108fc61031f6101a5565b9081150290604051600060405180830381858888f1935050505015801561034a573d6000803e3d6000fd5b50600067ffffffffffffffff81111561036657610365610689565b5b6040519080825280602002602001820160405280156103945781602001602082028036833780820191505090505b50600090805190602001906103aa929190610429565b50505050565b600044426000805490506040516020016103cc939291906106d9565b6040516020818303038152906040528051906020012060001c905090565b600081815481106103fa57600080fd5b906000526020600020016000915054906101000a900473ffffffffffffffffffffffffffffffffffffffff1681565b8280548282559060005260206000209081019282156104a2579160200282015b828111156104a15782518260006101000a81548173ffffffffffffffffffffffffffffffffffffffff021916908373ffffffffffffffffffffffffffffffffffffffff16021790555091602001919060010190610449565b5b5090506104af91906104b3565b5090565b5b808211156104cc5760008160009055506001016104b4565b5090565b6000819050919050565b6104e3816104d0565b82525050565b60006020820190506104fe60008301846104da565b92915050565b600073ffffffffffffffffffffffffffffffffffffffff82169050919050565b600061052f82610504565b9050919050565b61053f81610524565b82525050565b600060208201905061055a6000830184610536565b92915050565b600080fd5b61056e816104d0565b811461057957600080fd5b50565b60008135905061058b81610565565b92915050565b6000602082840312156105a7576105a6610560565b5b60006105b58482850161057c565b91505092915050565b60006105c982610504565b9050919050565b6105d9816105be565b82525050565b60006020820190506105f460008301846105d0565b92915050565b7f4e487b7100000000000000000000000000000000000000000000000000000000600052601260045260246000fd5b6000610634826104d0565b915061063f836104d0565b92508261064f5761064e6105fa565b5b828206905092915050565b7f4e487b7100000000000000000000000000000000000000000000000000000000600052603260045260246000fd5b7f4e487b7100000000000000000000000000000000000000000000000000000000600052604160045260246000fd5b6000819050919050565b6106d36106ce826104d0565b6106b8565b82525050565b60006106e582866106c2565b6020820191506106f582856106c2565b60208201915061070582846106c2565b60208201915081905094935050505056fea2646970667358221220ea9db928d6d5b6ab2aa48c93330fba7cf97e2fb47c82c6092d2120e2e871741d64736f6c634300080d0033",
  "immutableReferences": {},
  "source": "// SPDX-License-Identifier: MIT\npragma solidity >=0.4.22 <0.9.0;\n\ncontract Lottery {\n    address payable[] public players;\n    address public manager; \n\n    constructor() {\n        manager = msg.sender;\n    }\n\n    receive() external payable{\n        require(msg.value == 0.1 ether);\n        players.push(payable(msg.sender));\n    }\n\n    function getBalance() public view returns(uint){\n        require(msg.sender == manager);\n        return address(this).balance;\n    }\n\n    function random() public view returns(uint){\n        return uint(keccak256(abi.encodePacked(block.difficulty, block.timestamp, players.length)));\n    }\n\n    function pickWinner() public {\n        require(msg.sender == manager);\n        require(players.length >= 3);\n\n        uint r = random();\n        address payable winner;\n\n        uint index = r % players.length;\n        winner = players[index];\n        \n        winner.transfer(getBalance());\n        players = new address payable[](0); // resetting the lottery\n    }\n\n\n}",
  "sourcePath": "/Users/cristianrosca/Desktop/Solidity/soldity-lottery/contracts/Lottery.sol",
  "compiler": {
    "name": "solc",
    "version": "0.8.13+commit.abaa5c0e.Emscripten.clang"
  },
  "schemaVersion": "3.4.7",
  "updatedAt": "2022-06-11T22:20:43.692Z",
  "networkType": "ethereum",
  "devdoc": {
    "kind": "dev",
    "methods": {},
    "version": 1
  },
  "userdoc": {
    "kind": "user",
    "methods": {},
    "version": 1
  }
}